:100A2400C0F9A4B0999282F8809020202020492017
:100A34006C6F7665207374756479002020202030F3
:080A4400303A30303A30300046
:040A9B007FE6DFFE15
:010A9F002234
:0F09F7008FA07F0A7E00120A06D2857F0A7E003B
:100A0600D3EF9400EE940040147D6E7C00ED1D70D3
:0D0A1600011CED4C70F7EF1F70E61E80E331
:010A230022B0
:090A7200AD0B7F07120A507FC78B
:0A0A7B00C286C2871209F7C2852265
:0A0A9100C286D2871209F7C285223F
:10095D00C285C2867F38120A7B7F0C120A7B7F0606
:10096D00120A7B7F01120A7B7F80120A7BE4FBEB6C
:10097D00900A2E93FF120A917F057E00120A060B34
:10098D00BB10EC7FC0120A7BE4FBEB900A3F93FF98
:10099D00120A917F057E00120A060BBB0CEC7589BD
:0D09AD0001758C3C758AB0D2AFD2A9D28CF6
:0109BA00221A
:040A4C00AD087F0A68
:100A5000ED75F00A84FBED75F00A84AAF0EF24C06E
:100A6000FF120A7BEB2430FF120A91EA2430FF02C6
:020A70000A91E9
:1008000020B5437F057E00120A0620B539050A305F
:10081000B5FDE50AB4010CC28C7FCB120A7B7F0FB9
:10082000120A7BE50AB402057FC8120A7BE50AB406
:1008300003057FC5120A7BE50AB4040AE4F50A7FC2
:100840000C120A7BD28CE50A70030208F520B45121
:100850007F057E00120A0620B44730B4FDE50AB4D5
:1008600001120508E508B43C03E4F508120A4C7FC0
:10087000CB120A7BE50AB4020D050BE50BB43C0371
:10088000E4F50B120A72E50AB40316050CE50CB484
:100890001803E4F50CAD0C7F04120A507FC4120A51
:1008A0007B20B3517F057E00120A0620B34730B388
:1008B000FDE50AB401121508E508B4FF0375083B0D
:1008C000120A4C7FCA120A7BE50AB4020D150BE529
:1008D0000BB4FF03750B3B120A72E50AB40316153D
:1008E0000CE50CB4FF03750C17AD0C7F04120A5015
:0608F0007FC4120A7B2206
:1009BB0012095D120800E50CB406F8E50BB428F338
:0509CB00E508B43BEE5D
:1009D000750DC8B2B6120A9B150DE50DD3940050E3
:1009E000F2750DC8E50DD3940040E5B2B6120A9B2E
:0709F000120A9B150D80EDBA
:03000B000208F6F2
:1008F600C0E0C0F0C0D075D000C002C003C004C0C4
:1009060005C006C007758C3C758AB00509E5096403
:10091600127031F5090508E508643C7024F50805F0
:100926000BE50BB43C14750B00050CE50CB4180371
:10093600750C00AD0C7F04120A50AD0B7F07120A2E
:1009460050120A4CD007D006D005D004D003D002EE
:07095600D0D0D0F0D0E03258
:03000000020A856C
:0C0A8500787FE4F6D8FD75810D0209BBF6
:00000001FF
