:100DDB0074656D70747572653A0020202020303078
:030DEB002E3000A7
:080E1100020801C2020A006E92
:0F0D49008FA07F0A7E00120D58D2857F0A7E0090
:100D5800D3EF9400EE940040147D6E7C00ED1D707E
:0D0D6800011CED4C70F7EF1F70E61E80E3DC
:010D7500225B
:0A0DFD00C286C287120D49C285228A
:0A0E0700C286D287120D49C285226F
:100C6C00C286C2857F38120DFD7F0C120DFD7F06EA
:100C7C00120DFD7F01120DFD7F80120DFDE4F50FAD
:100C8C00E50F900DDB93FF120E077F057E00120D12
:100C9C0058050FE50FC3940940E67FC0120DFDE423
:100CAC00F50FE50F900DE593FF120E077F057E0003
:0D0CBC00120D58050FE50FC3940840E62205
:100D7600C2B7750F46AF0F150FEF70F9D2B7E4F58E
:100D86000F30B7157F017E00120D58050FE50FD302
:0A0D9600940540037F00227F012234
:0C0D0D00120D767F017E00120D587FCC85
:100D1900E4FBFAC2B70511E51170020510EF139251
:100D2900B7751000751106AE0F150FEE70F9D2B731
:0F0D3900EFC313FF0BBB00010AEB64084A70D431
:010D48002288
:100CC9007D087C00C2B70511E51170020510D2B785
:100CD9000511E511700205100511E51170020510E5
:100CE900A2B7E433C43333335480FEEFC3134EFF4A
:100CF900750F04AE0F150FEE70F9ED1D70011CEDA7
:030D09004C70C16A
:010D0C0022C4
:080E1A00120D0D7F44020D19B9
:080E2200120D0D7FBE020D1937
:100DC500E4FFFE120E1A120E22120CC9AB07120C0A
:050DD500C9EFFEEBFF79
:010DDA0022F6
:040BE200AB07AA06AD
:100BE600C3EA6480948050177FC3120DFD7F2D12D7
:100BF6000E07EB1B70011A6303FF6302FF8000AD53
:100C060003AC02EC120A038F138E128D118C10E4C2
:100C1600FFFE7D207C3FAB13AA12A911A810120873
:100C2600F8E4FBFAF9783F120807120A3CAA06AB69
:100C3600077C007D64AF03AE02120ABD8F0C7C00F8
:100C46007D64AF03AE02120ABD7E007F0ACFCDCF10
:100C5600CECCCE120ABD8F0DAE02AF037C007D0A4C
:050C6600120ABD8D0E15
:010C6B002266
:100DA0007FC5120DFDAF0C120E077FC6120DFDAFF1
:100DB0000D120E077FC8120DFDAF0E120E077F0534
:050DC0007E00020D5849
:0F0DEE00120C6C7E0D7FC5120BE2120DA080F46B
:10080000020AA8E86480F8E933E83360110460F074
:10081000ED33EC337009E8FCE9FDEAFEEBFF22045E
:1008200060DED3EB9FEA9EE99DE8C2E78CF0C2F759
:1008300095F0400CE8CCF8E9CDF9EACEFAEBCFFB25
:10084000120A7385D0F05804700320D5B3E8047001
:10085000075002B2D5020AB292D5EC0460F7E4CC9C
:10086000C0E0C398F8603B94186008400DD0E0FBEE
:10087000020A8AE4FBFAC9FC8028E830E406E4C9ED
:10088000FBE4CAFCE830E305E4C9CACBFCE8540742
:100890006010F8C3E913F9EA13FAEB13FBEC13FC4D
:1008A000D8F130F52FC3E49CFCEF9BFFEE9AFEEDF0
:1008B00099FDD0E0FBEF4E4D4C701222DB03020A93
:1008C000AFEC2CFCEF33FFEE33FEED33FDED30E704
:1008D000EB020A8AEF2BFFEE3AFEED39FDD0E0FB8A
:1008E00050130BBB0003020AB2ED13FDEE13FEEF33
:0808F00013FFEC13FC020A8A5D
:1008F800EC4D6011E8497017ED33EC3304600DE4FA
:10090800FCFFFEFD22E933E8330470F8020AA8125E
:100918000A7358046009E4CC24815006285009025F
:100928000AB2284003020AAFC0E0EB4A7044B9801B
:1009380006D0E0FB020A9EEF4E701CBD8008EBFF5C
:10094800EAFEE9FD80EBE98DF0A4FEE5F00209E19D
:10095800E9CDF9EAFEEBFFEF89F0A4FCE5F0CE89DA
:10096800F0A42EFFE435F0CD89F0A42DFEE435F097
:100978008067EF4E7005BD80D780C3EF8BF0A4ACC5
:10098800F0EE8BF0A42CFCE435F0F8EF8AF0A42C00
:10099800E5F038FCE433CB8DF0A42CFCE5F03BF813
:1009A800EE8AF0A42CFCE5F038F8E433CF89F0A403
:1009B8002CFCE5F038CF3400CE89F0A42FFFE5F009
:1009C8003EFEE433C98DF0A42EFEE5F039CD8AF061
:1009D800A42FFFE5F03EFEE43DFD33D0E0FB5007D9
:1009E8000BBB000F020AB2EC2CFCEF33FFEE33FE18
:0609F800ED33FD020A8A46
:1009FE0075F020800E75F010800575F0087D007E74
:100A0E00007F003392D530D503120AF3EC33401039
:100A1E00EF33FFEE33FEED33FDEC33FCD5F0ED227C
:0E0A2E00E5F0247EA2D513CC92E7CDCEFF22B8
:100A3C00EDD2E7CD33EC3392D524814006E4FFFEB2
:100A4C00FDFC22FCE4CFCECDCC24E0501174FF8011
:100A5C00EDC3CC13CCCD13CDCE13CECF13CF0470AE
:070A6C00F030D5DE020AF3B1
:100A7300E9D2E7C933E833F892D5EDD2E7CD33ECC9
:070A830033FC5002B2D52242
:100A8A00EC30E7100FBF000C0EBE00080DBD0004CD
:100A9A000BEB6014A2D5EB13FCED92E7FD2274FF79
:100AAA00FCFDFEFF22E480F8A2D574FF13FC7D80D2
:030ABA00E480EFE6
:03000000020B569A
:0C0B5600787FE4F6D8FD758113020B9D3A
:100ABD00C2D5EC30E709B2D5E4C39DFDE49CFCEE54
:100ACD0030E715B2D5E4C39FFFE49EFE120B01C3C0
:100ADD00E49DFDE49CFC8003120B0130D507C3E4BB
:060AED009FFFE49EFE22C3
:0E0AF300C3E49FFFE49EFEE49DFDE49CFC2214
:100B6200020DEEE493A3F8E493A34003F68001F2AE
:100B720008DFF48029E493A3F85407240CC8C33394
:100B8200C4540F4420C8834004F456800146F6DF63
:100B9200E4800B0102040810204080900E11E47ED4
:100BA200019360BCA3FF543F30E509541FFEE49358
:100BB200A360010ECF54C025E060A840B8E493A31F
:100BC200FAE493A3F8E493A3C8C582C8CAC583CA4A
:100BD200F0A3C8C582C8CAC583CADFE9DEE780BE02
:010E190000D8
:100B0100BC000BBE0029EF8DF084FFADF022E4CCD8
:100B1100F875F008EF2FFFEE33FEEC33FCEE9DECA1
:100B2100984005FCEE9DFE0FD5F0E9E4CEFD22EDE7
:100B3100F8F5F0EE8420D21CFEADF075F008EF2F31
:100B4100FFED33FD4007985006D5F0F222C398FD22
:050B51000FD5F0EA22BF
:00000001FF
