:10084600758920758DFD758BFDD28EC29FD29ED285
:090856009CD2AFD2ACE4F50822FB
:09086B00D294C293D292C29122F0
:09087400C294D293C292D29122E7
:09087D00C294D293D292C29122DE
:09088600D294C293C292D29122D5
:05089800C295C2902290
:05089D00D295D290226B
:10080000120846D295D290E50864017035E50924B6
:10081000FE601514601714601914601B14601D2409
:1008200005701C12086B8017120874801212087D64
:10083000800D1208868008120898800312089DE433
:06084000F508D29880C10A
:0300230002088F41
:09088F00C298859909750801322F
:0300000002085F94
:0C085F00787FE4F6D8FD758109020800DE
:00000001FF
