:10082500758920758DFD758BFDD28EC29FD29ED2A6
:060835009CD2AFD2AC2200
:0D084900D295D290D294C293D292C2912245
:0D085600D295D290C294D293C292D2912238
:0D086300D295C294D293D290D292C291222B
:0D087000D295D294C293D290C292D291221E
:10080000120825E508B44703120849E508B4420375
:10081000120856E508B44C03120863E508B452E325
:0508200012087080DEEB
:0300230002083B95
:0E083B00859908C2988508993099FDC29932B6
:0300000002087D76
:0C087D00787FE4F6D8FD758108020800C1
:00000001FF
