:10095300010800010C00010D00010B00C180C181E1
:040963000209000085
:1008F700E4FDFCC3ED9FEC9E5015E4FBFA0BBB0037
:0F090700010ABA0BF8BBB8F50DBD00010C80E476
:0109160022BE
:0F097800750C0A750B0CD291C292D294C29522C3
:0F098700750C0A750B0CC291D292C294D29522B4
:0F099600E4F50C750B0FD294C295C291D2922248
:0F09A500750C0CE4F50BD291C292C294D295223C
:0909B400C291C292C294C29522C4
:10091700300118E508D3950C5004D2908002C2909C
:0E092700E508C394144006E4F50822C29022AD
:10093500300018E50DD3950B5004D2938002C29375
:0E094500E50DC394144006E4F50D22C2932282
:10096800758901758CFC758A18D28CD2A9D2AF22F0
:03000B000208D612
:1008D600C0E0C0D0758CFC758A18050AE50A70025E
:1008E60005090508050D120917120935D0D0D0E003
:0108F60032CF
:10088C001209B412096820B60820B705120978803D
:10089C00F530B60620B70312099630B70620B6031A
:1008AC001209A530B7E030B6DD1209B4C296D29762
:1008BC007F0A7E001208F7D296C2971208F7C296EA
:0A08CC00C2971209781208F780BCE9
:03000000020800F3
:0C080000787FE4F6D8FD758120020847DF
:10080C0002088CE493A3F8E493A34003F68001F26E
:10081C0008DFF48029E493A3F85407240CC8C333ED
:10082C00C4540F4420C8834004F456800146F6DFBC
:10083C00E4800B0102040810204080900953E47EF0
:10084C00019360BCA3FF543F30E509541FFEE493B1
:10085C00A360010ECF54C025E060A840B8E493A378
:10086C00FAE493A3F8E493A3C8C582C8CAC583CAA3
:10087C00F0A3C8C582C8CAC583CADFE9DEE780BE5B
:01096700008F
:00000001FF
